:03000000020A5998
:0C0A5900787FE4F6D8FD75810F020800DC
:0E0A4B00505245535320414E59204B455900FF
:10080000120A0C75800F7BFF7A0A794B7D017F01FC
:100810001209537580FE2084097B317D017F02120D
:1008200009E92085097B347D017F021209E92086D0
:10083000097B377D017F021209E92087097B2A7D28
:10084000017F021209E97580FD2084097B327D0158
:100850007F021209E92085097B357D017F0212099B
:10086000E92086097B387D017F021209E92087098A
:100870007B307D017F021209E97580FB2084097BB2
:10088000337D017F021209E92085097B367D017FD6
:10089000021209E92086097B397D017F021209E9EC
:1008A0002087097B237D017F021209E97580F720EB
:1008B00084097B417D017F021209E92085097B4281
:1008C0007D017F021209E92086097B437D017F02B9
:1008D0001209E93087030208067B447D017F02127A
:0508E00009E902080611
:10097E007C007D191208FEE4FEEEC39F50157589AA
:10098E0011758ACB758C7DD28C308DFDC28DC28C4B
:03099E000E80E6E2
:0109A1002233
:1009A2007C007D641208FEE4FEEEC39F501575893B
:1009B20012758A7B758C7BD28C308DFDC28DC28C78
:0309C2000E80E6BE
:0109C500220F
:100A2700C2B1C2B28FA0D2B07F887E131209A2C210
:020A3700B022EB
:100A3900C2B1D2B28FA0D2B07F887E131209A2C2EE
:020A4900B022D9
:100A0C007F38120A277F83120A277F0C120A277F4E
:0B0A1C0001120A277F107E270209A2AA
:1009C6008B0D8A0E890FAB0DAA0EA90F1208E5FF33
:1009D6006010120A397401250FF50FE4350EF50E75
:0309E60080E42288
:100953008F088D098B0A8A0B890CE50830E006E5C0
:100963000944808009E50830E108E50944C0FF1225
:0B0973000A27AB0AAA0BA90C0209C658
:1009E9008F088D098B0AE50830E006E50944808007
:1009F90009E50830E108E50944C0FF120A27AF0AF2
:030A0900020A39A5
:1008E500BB010689828A83E0225002E722BBFE0211
:0908F500E32289828A83E4932244
:1008FE00BC000BBE0029EF8DF084FFADF022E4CCDE
:10090E00F875F008EF2FFFEE33FEEC33FCEE9DECA6
:10091E00984005FCEE9DFE0FD5F0E9E4CEFD22EDEC
:10092E00F8F5F0EE8420D21CFEADF075F008EF2F36
:10093E00FFED33FD4007985006D5F0F222C398FD27
:05094E000FD5F0EA22C4
:00000001FF
